{"abi":[{"type":"constructor","inputs":[],"stateMutability":"nonpayable"},{"type":"function","name":"addWriter","inputs":[{"name":"writer","type":"address","internalType":"address"}],"outputs":[],"stateMutability":"nonpayable"},{"type":"function","name":"createPost","inputs":[{"name":"title","type":"string","internalType":"string"},{"name":"contentCID","type":"string","internalType":"string"},{"name":"isPrivate","type":"bool","internalType":"bool"},{"name":"tags","type":"string[]","internalType":"string[]"}],"outputs":[{"name":"","type":"uint256","internalType":"uint256"}],"stateMutability":"nonpayable"},{"type":"function","name":"deletePost","inputs":[{"name":"id","type":"uint256","internalType":"uint256"}],"outputs":[],"stateMutability":"nonpayable"},{"type":"function","name":"editPost","inputs":[{"name":"id","type":"uint256","internalType":"uint256"},{"name":"title","type":"string","internalType":"string"},{"name":"contentCID","type":"string","internalType":"string"},{"name":"isPrivate","type":"bool","internalType":"bool"},{"name":"tags","type":"string[]","internalType":"string[]"}],"outputs":[],"stateMutability":"nonpayable"},{"type":"function","name":"getPost","inputs":[{"name":"id","type":"uint256","internalType":"uint256"}],"outputs":[{"name":"title","type":"string","internalType":"string"},{"name":"contentCID","type":"string","internalType":"string"},{"name":"isPrivate","type":"bool","internalType":"bool"},{"name":"pinned","type":"bool","internalType":"bool"},{"name":"deleted","type":"bool","internalType":"bool"},{"name":"createdAt","type":"uint48","internalType":"uint48"},{"name":"updatedAt","type":"uint48","internalType":"uint48"},{"name":"tags","type":"string[]","internalType":"string[]"}],"stateMutability":"view"},{"type":"function","name":"getPostCount","inputs":[],"outputs":[{"name":"","type":"uint256","internalType":"uint256"}],"stateMutability":"view"},{"type":"function","name":"getPostTags","inputs":[{"name":"id","type":"uint256","internalType":"uint256"}],"outputs":[{"name":"","type":"string[]","internalType":"string[]"}],"stateMutability":"view"},{"type":"function","name":"getPosts","inputs":[{"name":"offset","type":"uint256","internalType":"uint256"},{"name":"limit","type":"uint256","internalType":"uint256"}],"outputs":[{"name":"ids","type":"uint256[]","internalType":"uint256[]"},{"name":"titles","type":"string[]","internalType":"string[]"},{"name":"isPrivateFlags","type":"bool[]","internalType":"bool[]"},{"name":"pinnedFlags","type":"bool[]","internalType":"bool[]"},{"name":"deletedFlags","type":"bool[]","internalType":"bool[]"},{"name":"createdAts","type":"uint48[]","internalType":"uint48[]"}],"stateMutability":"view"},{"type":"function","name":"owner","inputs":[],"outputs":[{"name":"","type":"address","internalType":"address"}],"stateMutability":"view"},{"type":"function","name":"posts","inputs":[{"name":"","type":"uint256","internalType":"uint256"}],"outputs":[{"name":"title","type":"string","internalType":"string"},{"name":"contentCID","type":"string","internalType":"string"},{"name":"createdAt","type":"uint48","internalType":"uint48"},{"name":"updatedAt","type":"uint48","internalType":"uint48"},{"name":"isPrivate","type":"bool","internalType":"bool"},{"name":"pinned","type":"bool","internalType":"bool"},{"name":"deleted","type":"bool","internalType":"bool"}],"stateMutability":"view"},{"type":"function","name":"removeWriter","inputs":[{"name":"writer","type":"address","internalType":"address"}],"outputs":[],"stateMutability":"nonpayable"},{"type":"function","name":"togglePin","inputs":[{"name":"id","type":"uint256","internalType":"uint256"}],"outputs":[],"stateMutability":"nonpayable"},{"type":"function","name":"transferOwnership","inputs":[{"name":"newOwner","type":"address","internalType":"address"}],"outputs":[],"stateMutability":"nonpayable"},{"type":"function","name":"writers","inputs":[{"name":"","type":"address","internalType":"address"}],"outputs":[{"name":"","type":"bool","internalType":"bool"}],"stateMutability":"view"},{"type":"event","name":"OwnerTransferred","inputs":[{"name":"previousOwner","type":"address","indexed":true,"internalType":"address"},{"name":"newOwner","type":"address","indexed":true,"internalType":"address"}],"anonymous":false},{"type":"event","name":"PostCreated","inputs":[{"name":"id","type":"uint256","indexed":true,"internalType":"uint256"},{"name":"author","type":"address","indexed":true,"internalType":"address"},{"name":"title","type":"string","indexed":false,"internalType":"string"},{"name":"contentCID","type":"string","indexed":false,"internalType":"string"},{"name":"isPrivate","type":"bool","indexed":false,"internalType":"bool"}],"anonymous":false},{"type":"event","name":"PostDeleted","inputs":[{"name":"id","type":"uint256","indexed":true,"internalType":"uint256"}],"anonymous":false},{"type":"event","name":"PostPinned","inputs":[{"name":"id","type":"uint256","indexed":true,"internalType":"uint256"},{"name":"pinned","type":"bool","indexed":false,"internalType":"bool"}],"anonymous":false},{"type":"event","name":"PostUpdated","inputs":[{"name":"id","type":"uint256","indexed":true,"internalType":"uint256"},{"name":"title","type":"string","indexed":false,"internalType":"string"},{"name":"contentCID","type":"string","indexed":false,"internalType":"string"},{"name":"isPrivate","type":"bool","indexed":false,"internalType":"bool"}],"anonymous":false},{"type":"event","name":"WriterAdded","inputs":[{"name":"writer","type":"address","indexed":true,"internalType":"address"}],"anonymous":false},{"type":"event","name":"WriterRemoved","inputs":[{"name":"writer","type":"address","indexed":true,"internalType":"address"}],"anonymous":false},{"type":"error","name":"EmptyCID","inputs":[]},{"type":"error","name":"EmptyTitle","inputs":[]},{"type":"error","name":"NotAuthorized","inputs":[]},{"type":"error","name":"NotOwner","inputs":[]},{"type":"error","name":"PostAlreadyDeleted","inputs":[]},{"type":"error","name":"PostNotFound","inputs":[]},{"type":"error","name":"TooManyTags","inputs":[]},{"type":"error","name":"ZeroAddress","inputs":[]}],"bytecode":{"object":"0x608060405234801561000f575f80fd5b505f80546001600160a01b031916339081178255808252600160208190526040808420805460ff19169092179091555190917f6ff3aa2ea7b53070f6d9d07a445d338d89e8edef44250ffa8be19f53910d4a2e91a261224a806100715f395ff3fe608060405234801561000f575f80fd5b50600436106100e5575f3560e01c80638da5cb5b11610088578063da2824a811610063578063da2824a81461023a578063e3e6154b1461024d578063e909ffa11461026d578063f2fde38b14610280575f80fd5b80638da5cb5b146101bc5780638e7e80a214610200578063bcc9540714610232575f80fd5b806320f353cc116100c357806320f353cc1461014a57806340731c241461015d5780634ffd1be6146101845780635356dddc146101a9575f80fd5b806301dd0adf146100e9578063094cd5ee1461010f5780630b1e7f8314610124575b5f80fd5b6100fc6100f7366004611a2a565b610293565b6040519081526020015b60405180910390f35b61012261011d366004611ad0565b610536565b005b610137610132366004611ad0565b6106da565b6040516101069796959493929190611b48565b610122610158366004611ba4565b610871565b61017061016b366004611ad0565b610b99565b604051610106989796959493929190611cc9565b610197610192366004611d41565b610e6f565b60405161010696959493929190611dd4565b6101226101b7366004611e7f565b6112b3565b5f546101db9073ffffffffffffffffffffffffffffffffffffffff1681565b60405173ffffffffffffffffffffffffffffffffffffffff9091168152602001610106565b61022261020e366004611e7f565b60016020525f908152604090205460ff1681565b6040519015158152602001610106565b6002546100fc565b610122610248366004611e7f565b6113c3565b61026061025b366004611ad0565b6114d9565b6040516101069190611eb9565b61012261027b366004611ad0565b61160b565b61012261028e366004611e7f565b6117c4565b335f9081526001602052604081205460ff161580156102c957505f5473ffffffffffffffffffffffffffffffffffffffff163314155b15610300576040517fea8e4eb500000000000000000000000000000000000000000000000000000000815260040160405180910390fd5b5f87900361033a576040517fa5bb9bde00000000000000000000000000000000000000000000000000000000815260040160405180910390fd5b5f859003610374576040517f63ee91d000000000000000000000000000000000000000000000000000000000815260040160405180910390fd5b600a8211156103af576040517fee39e85500000000000000000000000000000000000000000000000000000000815260040160405180910390fd5b60028054600181018083555f838152919290839081106103d1576103d1611ecb565b5f91825260209091206004909102019050806103ee8a8c83611fc2565b50600181016103fe888a83611fc2565b506003810180547fffffffffffffffffffffffffffffffffff000000000000000000000000000000166c01000000000000000000000000881515027fffffffffffffffffffffffffffffffffff0000ff00000000000000000000000016174265ffffffffffff169081176601000000000000919091021790555f5b848110156104d1578160020186868381811061049757610497611ecb565b90506020028101906104a991906120d8565b82546001810184555f9384526020909320909201916104c89183611fc2565b50600101610479565b503373ffffffffffffffffffffffffffffffffffffffff16827fc0449481752f457f65e9d2e65a285851560dd473d2e10a4b0e1b3b73811c3a158c8c8c8c8c604051610521959493929190612180565b60405180910390a35098975050505050505050565b335f9081526001602052604090205460ff1615801561056c57505f5473ffffffffffffffffffffffffffffffffffffffff163314155b156105a3576040517fea8e4eb500000000000000000000000000000000000000000000000000000000815260040160405180910390fd5b600254819081106105e0576040517fbc1f089f00000000000000000000000000000000000000000000000000000000815260040160405180910390fd5b600281815481106105f3576105f3611ecb565b905f5260205f209060040201600301600e9054906101000a900460ff1615610647576040517fd7f06c0300000000000000000000000000000000000000000000000000000000815260040160405180910390fd5b60016002838154811061065c5761065c611ecb565b5f9182526020822060036004909202010180549215156e010000000000000000000000000000027fffffffffffffffffffffffffffffffffff00ffffffffffffffffffffffffffff9093169290921790915560405183917f32d67e2131cd025eb20e7256680e338dedbe17b28943a11681860a9271ad119d91a25050565b600281815481106106e9575f80fd5b905f5260205f2090600402015f91509050805f01805461070890611f25565b80601f016020809104026020016040519081016040528092919081815260200182805461073490611f25565b801561077f5780601f106107565761010080835404028352916020019161077f565b820191905f5260205f20905b81548152906001019060200180831161076257829003601f168201915b50505050509080600101805461079490611f25565b80601f01602080910402602001604051908101604052809291908181526020018280546107c090611f25565b801561080b5780601f106107e25761010080835404028352916020019161080b565b820191905f5260205f20905b8154815290600101906020018083116107ee57829003601f168201915b5050506003909301549192505065ffffffffffff80821691660100000000000081049091169060ff6c0100000000000000000000000082048116916d010000000000000000000000000081048216916e0100000000000000000000000000009091041687565b335f9081526001602052604090205460ff161580156108a757505f5473ffffffffffffffffffffffffffffffffffffffff163314155b156108de576040517fea8e4eb500000000000000000000000000000000000000000000000000000000815260040160405180910390fd5b6002548890811061091b576040517fbc1f089f00000000000000000000000000000000000000000000000000000000815260040160405180910390fd5b6002818154811061092e5761092e611ecb565b905f5260205f209060040201600301600e9054906101000a900460ff1615610982576040517fd7f06c0300000000000000000000000000000000000000000000000000000000815260040160405180910390fd5b5f8790036109bc576040517fa5bb9bde00000000000000000000000000000000000000000000000000000000815260040160405180910390fd5b5f8590036109f6576040517f63ee91d000000000000000000000000000000000000000000000000000000000815260040160405180910390fd5b600a821115610a31576040517fee39e85500000000000000000000000000000000000000000000000000000000815260040160405180910390fd5b5f60028a81548110610a4557610a45611ecb565b5f9182526020909120600490910201905080610a62898b83611fc2565b5060018101610a72878983611fc2565b506003810180547fffffffffffffffffffffffffffffffffffffff00000000000000ffffffffffff166c01000000000000000000000000871515027fffffffffffffffffffffffffffffffffffffffff000000000000ffffffffffff161766010000000000004265ffffffffffff1602179055610af2600282015f61190c565b5f5b83811015610b4c5781600201858583818110610b1257610b12611ecb565b9050602002810190610b2491906120d8565b82546001810184555f938452602090932090920191610b439183611fc2565b50600101610af4565b50897f9f8eb93fc073102bbd3072664634ab200707a4f11d94aace9cc8d0e4d019eff58a8a8a8a8a604051610b85959493929190612180565b60405180910390a250505050505050505050565b6060805f805f805f60606002805490508910610be1576040517fbc1f089f00000000000000000000000000000000000000000000000000000000815260040160405180910390fd5b5f60028a81548110610bf557610bf5611ecb565b5f918252602090912060036004909202019081015481549192508291600183019160ff6c0100000000000000000000000082048116926d010000000000000000000000000083048216926e01000000000000000000000000000081049092169165ffffffffffff808216926601000000000000909204169060028801908890610c7d90611f25565b80601f0160208091040260200160405190810160405280929190818152602001828054610ca990611f25565b8015610cf45780601f10610ccb57610100808354040283529160200191610cf4565b820191905f5260205f20905b815481529060010190602001808311610cd757829003601f168201915b50505050509750868054610d0790611f25565b80601f0160208091040260200160405190810160405280929190818152602001828054610d3390611f25565b8015610d7e5780601f10610d5557610100808354040283529160200191610d7e565b820191905f5260205f20905b815481529060010190602001808311610d6157829003601f168201915b5050505050965080805480602002602001604051908101604052809291908181526020015f905b82821015610e4d578382905f5260205f20018054610dc290611f25565b80601f0160208091040260200160405190810160405280929190818152602001828054610dee90611f25565b8015610e395780601f10610e1057610100808354040283529160200191610e39565b820191905f5260205f20905b815481529060010190602001808311610e1c57829003601f168201915b505050505081526020019060010190610da5565b5050505090509850985098509850985098509850985050919395975091939597565b6060806060806060805f6002805490509050808910610ef557604080515f80825260208201818152828401909352909190610eba565b6060815260200190600190039081610ea55790505b50604080515f808252602082018181528284018281526060840192835260808401909452949b50929950975091955090935091506112a99050565b5f610f00898b6121e8565b905081811115610f0d5750805b5f610f188b83612201565b90508067ffffffffffffffff811115610f3357610f33611ef8565b604051908082528060200260200182016040528015610f5c578160200160208202803683370190505b5098508067ffffffffffffffff811115610f7857610f78611ef8565b604051908082528060200260200182016040528015610fab57816020015b6060815260200190600190039081610f965790505b5097508067ffffffffffffffff811115610fc757610fc7611ef8565b604051908082528060200260200182016040528015610ff0578160200160208202803683370190505b5096508067ffffffffffffffff81111561100c5761100c611ef8565b604051908082528060200260200182016040528015611035578160200160208202803683370190505b5095508067ffffffffffffffff81111561105157611051611ef8565b60405190808252806020026020018201604052801561107a578160200160208202803683370190505b5094508067ffffffffffffffff81111561109657611096611ef8565b6040519080825280602002602001820160405280156110bf578160200160208202803683370190505b5093505f5b818110156112a4575f6110d7828e6121e8565b90505f600282815481106110ed576110ed611ecb565b905f5260205f2090600402019050818c848151811061110e5761110e611ecb565b60209081029190910101528054819061112690611f25565b80601f016020809104026020016040519081016040528092919081815260200182805461115290611f25565b801561119d5780601f106111745761010080835404028352916020019161119d565b820191905f5260205f20905b81548152906001019060200180831161118057829003601f168201915b50505050508b84815181106111b4576111b4611ecb565b602002602001018190525080600301600c9054906101000a900460ff168a84815181106111e3576111e3611ecb565b60200260200101901515908115158152505080600301600d9054906101000a900460ff1689848151811061121957611219611ecb565b60200260200101901515908115158152505080600301600e9054906101000a900460ff1688848151811061124f5761124f611ecb565b911515602092830291909101909101526003810154875165ffffffffffff9091169088908590811061128357611283611ecb565b65ffffffffffff9092166020928302919091019091015250506001016110c4565b505050505b9295509295509295565b5f5473ffffffffffffffffffffffffffffffffffffffff163314611303576040517f30cd747100000000000000000000000000000000000000000000000000000000815260040160405180910390fd5b73ffffffffffffffffffffffffffffffffffffffff8116611350576040517fd92e233d00000000000000000000000000000000000000000000000000000000815260040160405180910390fd5b73ffffffffffffffffffffffffffffffffffffffff81165f8181526001602052604080822080547fffffffffffffffffffffffffffffffffffffffffffffffffffffffffffffff00169055517f86e5bbceda94081c32220d685f37cc4e3ea7bb0be2dfbf0cb703579505a5390e9190a250565b5f5473ffffffffffffffffffffffffffffffffffffffff163314611413576040517f30cd747100000000000000000000000000000000000000000000000000000000815260040160405180910390fd5b73ffffffffffffffffffffffffffffffffffffffff8116611460576040517fd92e233d00000000000000000000000000000000000000000000000000000000815260040160405180910390fd5b73ffffffffffffffffffffffffffffffffffffffff81165f81815260016020819052604080832080547fffffffffffffffffffffffffffffffffffffffffffffffffffffffffffffff0016909217909155517f6ff3aa2ea7b53070f6d9d07a445d338d89e8edef44250ffa8be19f53910d4a2e9190a250565b6002546060908210611517576040517fbc1f089f00000000000000000000000000000000000000000000000000000000815260040160405180910390fd5b6002828154811061152a5761152a611ecb565b905f5260205f209060040201600201805480602002602001604051908101604052809291908181526020015f905b82821015611600578382905f5260205f2001805461157590611f25565b80601f01602080910402602001604051908101604052809291908181526020018280546115a190611f25565b80156115ec5780601f106115c3576101008083540402835291602001916115ec565b820191905f5260205f20905b8154815290600101906020018083116115cf57829003601f168201915b505050505081526020019060010190611558565b505050509050919050565b335f9081526001602052604090205460ff1615801561164157505f5473ffffffffffffffffffffffffffffffffffffffff163314155b15611678576040517fea8e4eb500000000000000000000000000000000000000000000000000000000815260040160405180910390fd5b600254819081106116b5576040517fbc1f089f00000000000000000000000000000000000000000000000000000000815260040160405180910390fd5b600281815481106116c8576116c8611ecb565b905f5260205f209060040201600301600e9054906101000a900460ff161561171c576040517fd7f06c0300000000000000000000000000000000000000000000000000000000815260040160405180910390fd5b5f6002838154811061173057611730611ecb565b5f9182526020918290206004909102016003810180547fffffffffffffffffffffffffffffffffffff00ffffffffffffffffffffffffff81166d01000000000000000000000000009182900460ff1615918202179091556040518181529193509185917fc151b8df09796828aaf2577c05804d1048479b735fd59ccaba332afa53151d47910160405180910390a250505050565b5f5473ffffffffffffffffffffffffffffffffffffffff163314611814576040517f30cd747100000000000000000000000000000000000000000000000000000000815260040160405180910390fd5b73ffffffffffffffffffffffffffffffffffffffff8116611861576040517fd92e233d00000000000000000000000000000000000000000000000000000000815260040160405180910390fd5b5f805473ffffffffffffffffffffffffffffffffffffffff8381167fffffffffffffffffffffffff000000000000000000000000000000000000000083168117845580845260016020819052604080862080547fffffffffffffffffffffffffffffffffffffffffffffffffffffffffffffff001690921790915551919092169283917f8934ce4adea8d9ce0d714d2c22b86790e41b7731c84b926fbbdc1d40ff6533c99190a35050565b5080545f8255905f5260205f2090810190611927919061192a565b50565b80821115611946575f61193d828261194a565b5060010161192a565b5090565b50805461195690611f25565b5f825580601f10611965575050565b601f0160209004905f5260205f209081019061192791905b80821115611946575f815560010161197d565b5f8083601f8401126119a0575f80fd5b50813567ffffffffffffffff8111156119b7575f80fd5b6020830191508360208285010111156119ce575f80fd5b9250929050565b803580151581146119e4575f80fd5b919050565b5f8083601f8401126119f9575f80fd5b50813567ffffffffffffffff811115611a10575f80fd5b6020830191508360208260051b85010111156119ce575f80fd5b5f805f805f805f6080888a031215611a40575f80fd5b873567ffffffffffffffff80821115611a57575f80fd5b611a638b838c01611990565b909950975060208a0135915080821115611a7b575f80fd5b611a878b838c01611990565b9097509550859150611a9b60408b016119d5565b945060608a0135915080821115611ab0575f80fd5b50611abd8a828b016119e9565b989b979a50959850939692959293505050565b5f60208284031215611ae0575f80fd5b5035919050565b5f81518084525f5b81811015611b0b57602081850181015186830182015201611aef565b505f6020828601015260207fffffffffffffffffffffffffffffffffffffffffffffffffffffffffffffffe0601f83011685010191505092915050565b60e081525f611b5a60e083018a611ae7565b8281036020840152611b6c818a611ae7565b65ffffffffffff988916604085015296909716606083015250921515608084015290151560a0830152151560c0909101529392505050565b5f805f805f805f8060a0898b031215611bbb575f80fd5b88359750602089013567ffffffffffffffff80821115611bd9575f80fd5b611be58c838d01611990565b909950975060408b0135915080821115611bfd575f80fd5b611c098c838d01611990565b9097509550859150611c1d60608c016119d5565b945060808b0135915080821115611c32575f80fd5b50611c3f8b828c016119e9565b999c989b5096995094979396929594505050565b5f8282518085526020808601955060208260051b840101602086015f5b84811015611cbc577fffffffffffffffffffffffffffffffffffffffffffffffffffffffffffffffe0868403018952611caa838351611ae7565b98840198925090830190600101611c70565b5090979650505050505050565b5f610100808352611cdc8184018c611ae7565b90508281036020840152611cf0818b611ae7565b89151560408501528815156060850152871515608085015265ffffffffffff87811660a0860152861660c085015283810360e08501529050611d328185611c53565b9b9a5050505050505050505050565b5f8060408385031215611d52575f80fd5b50508035926020909101359150565b5f815180845260208085019450602084015f5b83811015611d92578151151587529582019590820190600101611d74565b509495945050505050565b5f815180845260208085019450602084015f5b83811015611d9257815165ffffffffffff1687529582019590820190600101611db0565b60c080825287519082018190525f9060209060e0840190828b01845b82811015611e0c57815184529284019290840190600101611df0565b5050508381036020850152611e21818a611c53565b9150508281036040840152611e368188611d61565b90508281036060840152611e4a8187611d61565b90508281036080840152611e5e8186611d61565b905082810360a0840152611e728185611d9d565b9998505050505050505050565b5f60208284031215611e8f575f80fd5b813573ffffffffffffffffffffffffffffffffffffffff81168114611eb2575f80fd5b9392505050565b602081525f611eb26020830184611c53565b7f4e487b71000000000000000000000000000000000000000000000000000000005f52603260045260245ffd5b7f4e487b71000000000000000000000000000000000000000000000000000000005f52604160045260245ffd5b600181811c90821680611f3957607f821691505b602082108103611f70577f4e487b71000000000000000000000000000000000000000000000000000000005f52602260045260245ffd5b50919050565b601f821115611fbd57805f5260205f20601f840160051c81016020851015611f9b5750805b601f840160051c820191505b81811015611fba575f8155600101611fa7565b50505b505050565b67ffffffffffffffff831115611fda57611fda611ef8565b611fee83611fe88354611f25565b83611f76565b5f601f84116001811461203e575f85156120085750838201355b7fffffffffffffffffffffffffffffffffffffffffffffffffffffffffffffffff600387901b1c1916600186901b178355611fba565b5f838152602081207fffffffffffffffffffffffffffffffffffffffffffffffffffffffffffffffe08716915b8281101561208b578685013582556020948501946001909201910161206b565b50868210156120c6577fffffffffffffffffffffffffffffffffffffffffffffffffffffffffffffffff60f88860031b161c19848701351681555b505060018560011b0183555050505050565b5f8083357fffffffffffffffffffffffffffffffffffffffffffffffffffffffffffffffe184360301811261210b575f80fd5b83018035915067ffffffffffffffff821115612125575f80fd5b6020019150368190038213156119ce575f80fd5b81835281816020850137505f602082840101525f60207fffffffffffffffffffffffffffffffffffffffffffffffffffffffffffffffe0601f840116840101905092915050565b606081525f612193606083018789612139565b82810360208401526121a6818688612139565b91505082151560408301529695505050505050565b7f4e487b71000000000000000000000000000000000000000000000000000000005f52601160045260245ffd5b808201808211156121fb576121fb6121bb565b92915050565b818103818111156121fb576121fb6121bb56fea2646970667358221220464daa179bbdc46fdd3a711e3d99ea84bded259568c30d7d4a133fef6e355fee64736f6c63430008180033","linkReferences":{}},"methodIdentifiers":{"addWriter(address)":"da2824a8","createPost(string,string,bool,string[])":"01dd0adf","deletePost(uint256)":"094cd5ee","editPost(uint256,string,string,bool,string[])":"20f353cc","getPost(uint256)":"40731c24","getPostCount()":"bcc95407","getPostTags(uint256)":"e3e6154b","getPosts(uint256,uint256)":"4ffd1be6","owner()":"8da5cb5b","posts(uint256)":"0b1e7f83","removeWriter(address)":"5356dddc","togglePin(uint256)":"e909ffa1","transferOwnership(address)":"f2fde38b","writers(address)":"8e7e80a2"},"gasEstimates":{"creation":{"codeDepositCost":"1755600","executionCost":"51528","totalCost":"1807128"},"external":{"addWriter(address)":"27874","createPost(string,string,bool,string[])":"infinite","deletePost(uint256)":"38734","editPost(uint256,string,string,bool,string[])":"infinite","getPost(uint256)":"infinite","getPostCount()":"2347","getPostTags(uint256)":"infinite","getPosts(uint256,uint256)":"infinite","owner()":"2334","posts(uint256)":"infinite","removeWriter(address)":"27923","togglePin(uint256)":"39077","transferOwnership(address)":"52562","writers(address)":"2526"},"internal":{}},"id":21}